:020000040800F2
:10000000300D0020B11000084D0300084F03000818
:1000100053030008570300085B03000800000000BA
:100020000000000000000000000000005F03000866
:100030006103000800000000630300086503000876
:10004000CB100008CB100008CB100008CB10000824
:10005000CB100008CB100008CB100008CB10000814
:10006000DB0B0008CB100008CB100008CB100008F9
:10007000CB100008CB100008CB100008CB100008F4
:10008000CB100008CB100008CB100008CB100008E4
:10009000CB100008CB100008CB100008CB100008D4
:1000A000CB100008CB100008CB100008CB100008C4
:1000B000CB100008CB100008CB100008CB100008B4
:1000C000CB100008CB100008CB100008CB100008A4
:1000D000CB100008E90C0008CB100008CB1000087A
:1000E000CB100008CB100008CB100008CB10000884
:1000F000CB100008CB100008CB100008CB10000874
:10010000CB100008CB100008CB100008CB10000863
:10011000CB100008CB100008CB100008CB10000853
:10012000CB100008CB100008CB100008CB10000843
:10013000DFF80CD003F004F800480047090200087B
:10014000300D002008B50121082001F0DFFA4FF43E
:100150004660ADF8000010208DF8030003208DF8F4
:1001600002006946644801F015F84FF446616248A0
:1001700001F0BFF808BD10B5002409E05F4830F871
:1001800014105D4801F0BCF8032000F064FF641C0B
:10019000042CF3DB10BD10B5002409E0584830F8FA
:1001A0001410554801F0ACF8032000F054FF641C13
:1001B000042CF3DB10BD10B500214F4801F0A0F86E
:1001C00010BD70B506460D46012E0ED1002403E089
:1001D000FFF7E1FF601C84B2A8012D2190FBF1F034
:1001E000A042F5DCFFF7E7FF0DE0002403E0FFF796
:1001F000C2FF601C84B2A8012D2190FBF1F0A04247
:10020000F5DCFFF7D8FF70BD1CB500200190009011
:1002100000F0E4FE4FF4165000F017FD00F094F9E2
:100220008F2142F20F7000F061FE00F03AFE00F004
:10023000E1FC00F0A9FC00F0B1FB00F003FAFFF7CD
:1002400081FF00221146104600F031FB02220021FE
:10025000102000F02CFB2BA20021202000F00EFB30
:1002600001220221002000F022FB02221146102070
:1002700000F01DFB26A20221202000F0FFFA03223D
:100280000421002000F013FB04221146102000F08E
:100290000EFB22A20421202000F0F0FA0522042106
:1002A000542000F004FB1E4800F067FE22E069467F
:1002B00001A800F0CAFD9DF804200021402000F0B4
:1002C00092FA9DF800200221402000F08CFA154897
:1002D00002780421402000F086FA124803789DF845
:1002E00000209DF8041010A002F068FF4FF47A700F
:1002F00000F0B1FEDBE70000000C01400000002030
:10030000080000203A202020202020430000000088
:100310003A20202020202025000000003A00000084
:100320000000B4420E090020CEC2B6C83A202564AF
:100330002020CAAAB6C83A2025642020CEB9CAB364
:10034000B4CECAFD3A202564200D0A00704700BFD4
:10035000FEE700BFFEE700BFFEE700BFFEE7704715
:1003600070477047704700000CB500200190009066
:100370006C48006840F480306A49086000BF6948F2
:10038000006800F4003000900198401C0190009833
:1003900018B90198B0F5A06FF1D16248006800F477
:1003A000003010B10120009001E000200090009882
:1003B000012843D15C48006840F010005A490860A9
:1003C0000846006820F0030008600846006840F016
:1003D0000200086053484068524948600846406837
:1003E00048600846406840F48060486008464068BD
:1003F00020F47C1048600846406840F4E8104860EB
:100400000846006840F08070086000BF45480068FA
:1004100000F000700028F9D04248406820F0030046
:10042000404948600846406840F00200486000BF0C
:100430003C48406800F00C000828F9D10CBD10B50C
:10044000FFF792FF10BD10B53648006840F001007C
:1004500034490860084640683449084031494860DA
:1004600008460068324908402E490860084600687E
:1004700020F4802008600846406820F4FE004860B0
:100480004FF41F008860FFF7DAFF4FF00060294942
:10049000086010BD10B5002100200022214B5B68D0
:1004A00003F00C0121B1042906D0082928D107E066
:1004B000214B224C236027E01F4B204C236023E07C
:1004C000184B5B6803F47010164B5B6803F48032C2
:1004D000022303EB904022B9194B4343174C23608E
:1004E0000DE0104B5B6803F4003323B1144B43431E
:1004F000124C236003E0104B4343104C236003E095
:100500000D4B0E4C236000BF00BF064B5B68C3F36E
:1005100003130C4CE15C094B1B68CB40074C236078
:1005200010BD000000100240002002400000FFF853
:10053000FFFFF6FE08ED00E000127A001000002038
:1005400000093D001400002008B50121242001F01D
:10055000DDF84FF48070ADF8000010208DF8030036
:1005600003208DF802006946044800F013FE4FF4A2
:100570008071024800F0BBFE08BD00000008014089
:1005800010B50A461AB10123FE4C236002E0002395
:10059000FC4C23600023FB4C241D2360002114E04D
:1005A0000023F94C236000F080031BB10123241DBC
:1005B000236003E00023F44C241D23600123F24C4C
:1005C00023604306180E4B1CD9B20829E8DB01232F
:1005D000EC4C241D2360ED4CC4F89C3110BD30B5AB
:1005E00004460D4605F1B001C8B20021FFF7C8FF6F
:1005F000102141EA14100021FFF7C2FF04F00F019F
:1006000041F001000021FFF7BBFF30BD00B5002124
:100610008D20FFF7B5FF00211420FFF7B1FF002167
:10062000AF20FFF7ADFF00BD00B500218D20FFF723
:10063000A7FF00211020FFF7A3FF0021AE20FFF746
:100640009FFF00BD30B5002419E004F1B001C8B22D
:100650000021FFF795FF00210846FFF791FF0021D9
:100660001020FFF78DFF002505E001210020FFF796
:1006700087FF681CC5B2802DF7DB601CC4B2082C54
:10068000E3DB30BD2DE9F04107460E4690460025DC
:100690000024A8F12000C5B27F2F02DD0027B01C86
:1006A000C6B231463846FFF79AFF002408E004EB53
:1006B0000511B74A505C0121FFF762FF601CC4B20C
:1006C000082CF4DB701CC1B23846FFF788FF002409
:1006D00009E004EB05110831AD4A505C0121FFF738
:1006E0004FFF601CC4B2082CF3DBBDE8F08110B5ED
:1006F0000246012000E050430B1EA1F10104E1B2CB
:10070000F9D110BD2DE9FF4F074691461D460D9EBC
:100710004FF0000A002433E0281B401EC1B20A201B
:10072000FFF7E5FFB9FBF0F00A21B0FBF1F201FBA6
:100730001208BAF1000F13D1681EA04210DDB8F103
:10074000000F0BD1B34606EBDB71491001FB0471BE
:10075000C8B220220199FFF795FF0FE04FF0010A80
:10076000B34606EBDB71491001FB0471C8B208F116
:100770003001CAB20199FFF785FF00BF601CC4B207
:10078000AC42C9DBBDE8FF8FF0B505460E46174603
:1007900026E031462846FFF722FF002405E001212C
:1007A0000020FFF7EDFE601CC4B2082CF7DB701CC4
:1007B000C1B22846FFF713FF002405E00121002005
:1007C000FFF7DEFE601CC4B2082CF7DB05F1080061
:1007D000C5B2782D02DD0025B01CC6B2781EC7B2A6
:1007E000002FD6D1F0BDFEB505460F4614460026B3
:1007F00000200090019002908DF8000030208DF8CC
:100800000100002C08DA64422D2239462846FFF701
:1008100039FF05F10800C5B224B93022394628460F
:10082000FFF730FF12E0701CC6B20A2094FBF0F113
:1008300000FB11403030C0B20DF806000A2094FBD6
:10084000F0F4782D02DD0025B81CC7B2002CEAD1E7
:100850000FE01DF8062039462846FFF713FF05F183
:100860000800C5B2782D02DD0025B81CC7B2701E85
:10087000C6B21DF806000028EBD1FEBDF0B5044657
:100880000F46154600260EE0AA5D39462046FFF7C2
:10089000F9FE04F10800C4B2782C02DD0024B81C73
:1008A000C7B2701CC6B2A85D0028EDD1F0BD2DE91D
:1008B000F04180460E461546002731464046FFF778
:1008C0008EFE00240AE0334A02EB8511085D012107
:1008D000FFF756FE781CC7B2601CC4B2102CF2DBC6
:1008E000701CC1B24046FFF77AFE00240CE069009C
:1008F000491C284A02EB4111085D0121FFF740FE27
:10090000781CC7B2601CC4B2102CF0DBBDE8F081CB
:100910002DE9F04F06460F4690461C46DDF824B000
:100920001D4850F82BA0E11704EB5171C910A4EB3E
:10093000C10131B92046E11704EB5171C1F3C7057C
:1009400006E02046E11704EB5171C910491CCDB2F5
:100950003D4612E029463046FFF741FEB14608E029
:100960001AF8010B0121FFF70BFE09F1010000F05D
:10097000FF09C145F4DD681CC5B2A542EADDBDE84A
:10098000F08F00009C812142B4012242008021426C
:100990007835000824000020E808002008B501216F
:1009A000182000F0B3FE4FF48070ADF80000102066
:1009B0008DF8030003208DF8020069466E4800F0B0
:1009C000E9FB4FF480716C4800F091FC8020ADF899
:1009D000000010208DF8030003208DF80200694606
:1009E000654800F0D7FB8021634800F080FC4FF49D
:1009F0000050ADF8000010208DF8030003208DF8A2
:100A0000020069465D4800F0C5FB4FF400515B48A9
:100A100000F06DFC4FF48040ADF8000010208DF820
:100A2000030003208DF802006946544800F0B2FB31
:100A30004FF48041514800F05AFC4FF40040ADF8AB
:100A4000000010208DF8030003208DF80200694695
:100A50004A4800F09FFB4FF40041484800F047FC33
:100A6000012047490860642000F0F5FA002045495C
:100A7000C1F8BC01642000F0EEFA01204049086092
:100A80000021AE20FFF77CFD00210846FFF778FD2E
:100A900000211020FFF774FD00214020FFF770FDBA
:100AA00000218120FFF76CFD0021CF20FFF768FDBA
:100AB0000021A120FFF764FD0021C820FFF760FDA1
:100AC0000021A620FFF75CFD0021A820FFF758FDBC
:100AD00000213F20FFF754FD0021D320FFF750FDF8
:100AE00000210846FFF74CFD0021D520FFF748FD07
:100AF00000218020FFF744FD0021D920FFF740FDB1
:100B00000021F120FFF73CFD0021DA20FFF738FD3E
:100B100000211220FFF734FD0021DB20FFF730FD1C
:100B200000214020FFF72CFD00212020FFF728FDA9
:100B300000210220FFF724FD00218D20FFF720FD7A
:100B400000211420FFF71CFD0021A420FFF718FD51
:100B50000021A620FFF714FD0021AF20FFF710FDB4
:100B60000021AF20FFF70CFDFFF76CFD00210846C8
:100B7000FFF735FD08BD0000000C014000100140EA
:100B8000BC012242000022420EB50121084600F0BD
:100B9000BDFD00F02FF80221002000F011FC042020
:100BA000019000208DF808000C208DF8090001202C
:100BB0008DF80A0001A801F09BFF08208DF80000C5
:100BC00002208DF8010000208DF8020001208DF830
:100BD0000300684601F007F80EBD10B50448006830
:100BE000401C03490860042001F0F9FF10BD00001B
:100BF000FC08002008B50121042000F087FD042036
:100C0000ADF8000048208DF803006946064800F062
:100C1000C1FA0820ADF8000048208DF803006946AD
:100C2000014800F0B7FA08BD00080140014600BFC6
:100C3000704700BF434A128802F04002002AF9D0F0
:100C4000C2B2404B1B1D1A80704710B586B00446D7
:100C5000012144F2040000F059FD3A4800F0BAFDC9
:100C60004FF40070ADF8140003208DF81600182022
:100C70008DF8170005A9344800F08CFA4FF4806015
:100C8000ADF8140004208DF8170005A92E4800F0D7
:100C900081FA25208DF8000003208DF801008DF8E1
:100CA000020001208DF80300684600F09CFF0194CB
:100CB0000020ADF80800ADF80A00ADF80C00ADF862
:100CC00010000C20ADF80E0001A91E4800F0C5FD73
:100CD000012240F225511B4800F057FE012119481E
:100CE00000F047FE06B010BD70472DE9F041074601
:100CF0000C46154600260DE02178384600F0A6FE89
:100D000000BF4021384600F00FFF0028F9D0641CD6
:100D1000701C86B2AE42EFDBBDE8F08170B50546CF
:100D20000C460BE000BF4021284600F0FDFE0028E5
:100D3000F9D02178284600F089FE641C207800282C
:100D4000F0D170BD003801400008014010B5644882
:100D5000006820F07060624908600846006840F052
:100D60004070086000205F490860142000F073F9AB
:100D700001205D49C1F8B8011E2000F048F910BDFE
:100D800010B500245648006820F07060544908608F
:100D90000846006840F00060086004E0601CC4B2CF
:100DA000012000F034F94F488038006808B1642C05
:100DB000F4DB642C01DB012010BD002404E0601C86
:100DC000C4B2012000F023F946488038006808B911
:100DD000642CF4DB642C01DB0120EDE70020EBE761
:100DE00010B5002404E0601CC4B2012000F00FF92B
:100DF0003C488038006808B1642CF4DB002404E02F
:100E0000601CC4B2012000F002F936488038006846
:100E100008B9642CF4DB282000F0F9F83148803858
:100E2000006808B1012010BD0020FCE770B5002467
:100E3000002506E06006040EFFF7D2FF0443681C9D
:100E4000C5B2082DF6DB204670BD7CB505460E46C2
:100E5000FFF77CFFFFF794FFF8B9002405E0FFF7E8
:100E6000E5FF0DF80400601CC4B2052CF7DB9DF80B
:100E700000009DF8011008449DF8021008449DF8F8
:100E8000031008449DF80410884208D19DF8000022
:100E900030709DF80200287001E001207CBD002028
:100EA000FCE708B50121082000F030FC4FF4804039
:100EB000ADF8000010208DF8030003208DF802002B
:100EC00069460748001F00F065F94FF48041044867
:100ED000001F00F00CFAFFF739FFFFF751FF08BDC4
:100EE000040C0140B88121420080214230B589B014
:100EF00005460C460121082000F015FC01210420C4
:100F000000F004FC0120ADF8200018208DF823002B
:100F100003208DF8220008A92B4800F03BF9ADF81A
:100F20001850ADF814400020ADF81A00ADF81600C6
:100F300005A9264800F094FF6020ADF804000120C8
:100F4000ADF806000020ADF80A00ADF80C0001A9CC
:100F50001E4800F0C2FF01211C4801F0E9FA0821F7
:100F60001A4801F009FC0121184801F0D5FB0121C4
:100F7000164801F0D1FA09B030BD2DE9F14F82B029
:100F8000029801F0EFFF80460022114B01F0D7FEDE
:100F9000064600220F4B01F044FF044600220E4B90
:100FA00001F026FE824601F0C4FF80B2019001F0FC
:100FB000A7FF0290029801F0A8FF84B221460348DF
:100FC00001F042FDBDE8FE8F00080140000C00402A
:100FD000000049400000224000206F4010B56FF033
:100FE000040000F04AFE2E4800682E49B0FBF1F0E4
:100FF0002D4908700846007800EB4001C1EBC01095
:101000004FF6FF7101EAC0002849088010BD014673
:10101000254A12784A434FF0E0235A6100229A6130
:101020001A46126942F001021A6100BF4FF0E02235
:10103000106900F001021AB100F48032002AF5D0E4
:101040004FF0E022126922F001024FF0E0231A6112
:1010500000229A6170470146144A12884A434FF0B1
:10106000E0235A6100229A611A46126942F0010295
:101070001A6100BF4FF0E022106900F001021AB1BE
:1010800000F48032002AF5D04FF0E022126922F0FD
:1010900001024FF0E0231A6100229A6170470000BC
:1010A0001000002000127A00140900201609002008
:1010B0000648804706480047FEE7FEE7FEE7FEE7F2
:1010C000FEE7FEE7FEE7FEE7FEE7FEE7470400086F
:1010D0003101000810B50446CC48844208D10121F2
:1010E000042000F02DFB0021042000F029FB46E045
:1010F000C748844208D10121082000F021FB0021CB
:10110000082000F01DFB3AE0C248844208D10121CA
:10111000102000F015FB0021102000F011FB2EE044
:10112000BD48844208D10121202000F009FB0021A4
:10113000202000F005FB22E0B848844208D10121BC
:10114000402000F0FDFA0021402000F0F9FA16E0FE
:10115000B348844208D10121802000F0F1FA002137
:10116000802000F0EDFA0AE0AE48844207D1012168
:10117000801500F0E5FA0021A01500F0E1FA10BD9D
:1011800010B50121084600F0DBFA0021012000F033
:10119000D7FA10BD2DE9F0410246002500260020B7
:1011A00000230024002791F803C00CF00F0591F8EC
:1011B00003C00CF0100CBCF1000F03D091F802C07A
:1011C0004CEA050591F800C0BCF1000F31D014685D
:1011D00000202BE04FF0010C0CFA00F3B1F800C036
:1011E0000CEA03069E4220D183004FF00F0C0CFA4C
:1011F00003F7BC4305FA03FC4CEA040491F803C06E
:10120000BCF1280F06D14FF0010C0CFA00FCC2F81B
:1012100014C00AE091F803C0BCF1480F05D14FF0AB
:10122000010C0CFA00FCC2F810C0401C0828D1D3F5
:101230001460B1F800C0BCF1FF0F34DD5468002029
:101240002EE000F1080C4FF0010808FA0CF3B1F899
:1012500000C00CEA03069E4221D183004FF00F0C20
:101260000CFA03F7BC4305FA03FC4CEA040491F8BA
:1012700003C0BCF1280F05D100F1080C08FA0CF8E6
:10128000C2F8148091F803C0BCF1480F07D100F1F7
:10129000080C4FF0010808FA0CF8C2F81080401C46
:1012A0000828CED35460BDE8F0814FF6FF7101806D
:1012B000022181700421C1707047024600209368AA
:1012C0000B400BB1012000E0002070470146886808
:1012D00080B2704702460020D3680B400BB101205A
:1012E00000E0002070470146C86880B27047016185
:1012F0007047416170470AB1016100E04161704788
:10130000C16070474FF480320A438261816182611B
:1013100082698269704702460020434B18684FF685
:101320008073184040EA021008433F4B1860704732
:101330003E49C8617047F0B50A46002300240021E9
:10134000002500F00046B6F1004F02D1364EF1699B
:1013500001E0354E7168C0F3034583B200F44016D6
:10136000B6F5401F08D121F070612F4E766826F047
:1013700070662D4F7E6012E000F48016B6F5801F77
:1013800006D1032606FA05F4A14341F0706106E098
:10139000460D360103FA06F6B14341F0706122B101
:1013A000460D360103FA06F6314300F00046B6F169
:1013B000004F02D11C4EF16101E01B4E7160F0BD87
:1013C00030B500228B071C0F0F2303FA04F2164BD3
:1013D00008338C1053F824309343134C08348D1089
:1013E00044F8253023468C1053F824308C07240F02
:1013F00000FA04F423430C4C08348D1044F82530D3
:1014000030BD0A49DC310860704700000008014027
:10141000000C014000100140001401400018014080
:10142000001C01400020014000000140000020425B
:10143000DF48006840F00100DD4908600846406868
:10144000DC490840DA49486008460068DA49084043
:10145000D74908600846006820F4802008600846E4
:10146000406820F4FE0048604FF41F008860704719
:10147000CF49096821F48031CD4A116011460968CD
:1014800021F480211160B0F5803F03D0B0F5802FAA
:101490000ED106E0C649096841F48031C44A1160A2
:1014A00007E0C349096841F4A021C14A116000E086
:1014B00000BF00BF704710B5014600220023002086
:1014C0004A11012A02D1BA4C236806E0022A02D14D
:1014D000B74C236A01E0B64C636A01F01F02012495
:1014E00094401C400CB1012000E0002010BD38B534
:1014F000002000900024002500BF3120FFF7DBFF13
:1015000005460098401C00900098B0F5A06F01D0EF
:10151000002DF2D03120FFF7CEFF08B1012400E00A
:101520000024204638BD01460020A14A106820F062
:10153000F80040EAC10010607047A0490860704799
:10154000024600209A4B586820F47C1042EA0103BE
:101550001843974B58607047984908667047014692
:101560000020934A506820F0030008435060704701
:101570008F48406800F00C007047014600208C4AFC
:10158000506820F0F000084350607047014600208A
:10159000874A506820F4E060084350607047014675
:1015A0000020834A506820F4605040EAC100506037
:1015B000704729B17E4A527A02437D4B5A7204E049
:1015C0007B4A527A82437A4B5A7270477B49D831B0
:1015D0000860704701460020754A506820F440407A
:1015E0000843506070470021714A20321170704AE0
:1015F00082F82010012802D004280AD104E0012139
:101600006B4A2032117005E00521694A20321170C1
:1016100000E000BF00BF7047694908607047644937
:10162000096A0143624A116270476549443908609A
:10163000704730B500210022002400235C4D6D6806
:1016400005F00C0121B1042905D0082923D105E0BA
:101650005C4D056022E05B4D05601FE0544D6D68F8
:1016600005F47012524D6D6805F48034022505EBC7
:1016700092421CB9544D554305600BE04C4D6D68CA
:1016800005F400351DB1504D5543056002E04D4D48
:101690005543056002E04B4D056000BF00BF444D5F
:1016A0006D6805F0F0010909484D6B5C0568DD4087
:1016B00045603F4D6D6805F4E061090A434D6B5C80
:1016C0004568DD4085603A4D6D6805F46051C90A92
:1016D0003E4D6B5C4568DD40C560354D6D6805F479
:1016E0004041890B3A4D6B5CC568B5FBF3F505616C
:1016F00030BD29B12E4A526902432D4B5A6104E094
:101700002B4A526982432A4B5A61704729B1284AB1
:1017100092690243264B9A6104E0254A926982430A
:10172000234B9A61704729B1214AD2690243204B69
:10173000DA6104E01E4AD26982431D4BDA617047C8
:1017400029B11B4AD2680243194BDA6004E0184AF7
:10175000D2688243164BDA60704729B1144A126985
:101760000243134B1A6104E0114A12698243104B81
:101770001A61704712494039086070470F49C864C0
:1017800070470B49C87170470948406A40F0807043
:1017900007494862704701460020054A92680A409E
:1017A0000AB1012000E000207047014988727047AB
:1017B000001002400000FFF8FFFFF6FE000042426A
:1017C0008004424200127A0000093D0018090020FE
:1017D0002809002010B50446FB48844209D10121A4
:1017E0008803FFF7ADFF00214FF48040FFF7A8FF0B
:1017F00032E0F648844209D101214804FFF7ADFFE9
:1018000000214FF40030FFF7A8FF25E0F0488442A4
:1018100009D101218804FFF7A0FF00214FF48020A7
:10182000FFF79BFF18E0EB48844209D10121C8046F
:10183000FFF793FF00214FF40020FFF78EFF0BE02E
:10184000E548844208D101210805FFF786FF002101
:101850004FF48010FFF781FF10BD2DE9F04786B0EF
:1018600005460E460024A24600BFA1460027B089C7
:1018700000B100BF2F462C8A4CF6FF700440F08860
:1018800004432C82AC894EF6F3100440B0883189B1
:101890000843718908430443AC81AC8A4FF6FF408A
:1018A0000440B0890443AC8201A8FFF7C2FEC648D9
:1018B000874202D1DDF810A001E0DDF80CA0A88974
:1018C00000F4004040B10AEBCA0000EB0A10316896
:1018D0004900B0FBF1F807E00AEBCA0000EB0A1080
:1018E00031688900B0FBF1F86420B8FBF0F0040126
:1018F0002009642101FB1089A88900F4004040B14F
:10190000322000EBC900B0FBF1F000F00700044307
:1019100008E0322000EB09106421B0FBF1F000F088
:101920000F0004432C8106B0BDE8F0874FF4165138
:10193000016000218180C18001810C214181002151
:101940008181704710B502460020108A4FF2FF03D4
:1019500018400B884C8823438C882343CC8823432E
:101960001843108210BD0021018041808180C18018
:10197000704721B1828942F40052828104E0828959
:101980004DF6FF731A4082817047F0B5034600247C
:1019900000260025002040F66A17B94200D100BF9A
:1019A0001846C1F3421401F01F06012707FA06F595
:1019B000012C01D10C3004E0022C01D1103000E0E8
:1019C00014301AB107682F43076002E00768AF437D
:1019D0000760F0BD1AB1838A0B43838202E0838AD9
:1019E0008B4383827047028A4FF6F0731A4002825B
:1019F000028A0A430282704782894FF2FF731A40BB
:101A0000828182890A438281704721B1828942F0B2
:101A10000202828104E082894FF6FD731A408281BE
:101A20007047028A4FF6DF731A400282028A0A4325
:101A30000282704721B1028A42F48042028204E0AD
:101A4000028A4BF6FF731A4002827047C1F3080204
:101A50008280704701468888C0F3080070478189FA
:101A600041F0010181817047028BD2B20283028B67
:101A700042EA012202837047028B02F47F42028312
:101A8000028B0A430283704721B1828A42F020020E
:101A9000828204E0828A4FF6DF731A4082827047A6
:101AA00021B1828A42F01002828204E0828A4FF6DB
:101AB000EF731A408282704721B1828A42F0080295
:101AC000828204E0828A4FF6F7731A40828270475E
:101AD00021B1828942F40042828103E08289C2F30B
:101AE0000E028281704721B1828A42F400628282B2
:101AF00004E0828A4FF2FF731A4082827047828A22
:101B00004FF6FB731A408282828A0A4382827047B0
:101B100021B1828A42F00202828204E0828A4FF678
:101B2000FD731A408282704702460020B1F5007FA3
:101B300000D100BF13880B400BB1012000E0002052
:101B4000704701F40072B2F5007F00D100BFCA43B4
:101B50000280704770B50246002400230025002053
:101B600040F66A16B14200D100BFC1F3421501F040
:101B70001F03012606FA03F3012D02D19689334093
:101B800006E0022D02D1168A334001E0968A3340E6
:101B90000C12012606FA04F41688344013B10CB175
:101BA000012000E0002070BD10B50022002340F6A7
:101BB0006A14A14200D100BF0A1201249440A3B2CA
:101BC000DC43048010BD00000038014000440040A8
:101BD00000480040004C00400050004031490143A3
:101BE000314A1160704770B5002100230F22C4787C
:101BF00004B32D4C246804F4E064C4F5E064210AC5
:101C0000C1F10403CA40447804FA03F18478144013
:101C100021430901254C0678A155047804F01F05DD
:101C20000124AC4005786D11AD0005F1E025C5F843
:101C3000004109E0047804F01F050124AC401C4D6C
:101C40000678761145F8264070BD1A4A0A400243CC
:101C5000154B1B1F1A60704739B1134A121D1268C9
:101C60000243114B1B1D1A6006E00F4A121D126839
:101C700082430D4B1B1D1A607047042808D14FF09A
:101C8000E021096941F004014FF0E022116107E011
:101C90004FF0E021096921F004014FF0E0221161C9
:101CA000704700000000FA050CED00E000E400E0E1
:101CB00080E100E080FFFF1F10B50446FE4884422B
:101CC00008D10121C014FFF73BFD0021E014FFF70C
:101CD00037FDC4E0B4F1804F08D101210846FFF779
:101CE0003CFD00210120FFF738FDB8E0F3488442B5
:101CF00008D101210220FFF730FD00210220FFF76B
:101D00002CFDACE0EE48844208D101210420FFF70D
:101D100024FD00210420FFF720FDA0E0E9488442D3
:101D200008D101210820FFF718FD00210820FFF746
:101D300014FD94E0E448844208D101211020FFF70B
:101D40000CFD00211020FFF708FD88E0DF488442E9
:101D500008D101212020FFF700FD00212020FFF7FE
:101D6000FCFC7CE0DA48844208D101214014FFF7F2
:101D7000E7FC00216014FFF7E3FC70E0D5488442E3
:101D800009D10121C804FFF7DBFC00214FF400203A
:101D9000FFF7D6FC63E0D048844209D10121080551
:101DA000FFF7CEFC00214FF48010FFF7C9FC56E08E
:101DB000CA48844209D101214805FFF7C1FC00212E
:101DC0004FF40010FFF7BCFC49E0C548844208D13D
:101DD00001214020FFF7C1FC00214020FFF7BDFC9E
:101DE0003DE0C048844208D101218020FFF7B5FCC6
:101DF00000218020FFF7B1FC31E0BB48844208D1CC
:101E000001218015FFF7A9FC0021A015FFF7A5FC13
:101E100025E0B648844209D101210804FFF790FC6F
:101E200000214FF48030FFF78BFC18E0B04884426B
:101E300009D101214804FFF783FC00214FF4003051
:101E4000FFF77EFC0BE0AB48844208D101218804F7
:101E5000FFF776FC00214FF48020FFF771FC10BDE6
:101E600000220288944B98420ED0994B98420BD096
:101E7000B0F1804F08D0914B984205D0904B9842DA
:101E800002D0904B984204D14FF68F731A404B8882
:101E90001A438D4B984207D08C4B984204D04FF692
:101EA000FF431A40CB881A4302808B8883850B88B6
:101EB0000385814B98420BD0854B984208D08B4BC1
:101EC000984205D08A4B984202D08A4B984201D161
:101ED0000B7A038601238382704770B500240022A9
:101EE0000023058C4FF6FE7635400584028C8388EE
:101EF000048B4FF68F752C40B51E2C400D882C435B
:101F0000751E2A400D892A434D882A436A4DA842EE
:101F10000BD06F4DA84208D0744DA84205D0744D27
:101F2000A84202D0734DA84213D14FF6F7752A404C
:101F30004D892A434FF6FB752A408D882A434FF678
:101F4000FF652B404FF6FF552B408D892B43CD89E4
:101F50002B4383800483CD888586028470BD70B551
:101F6000002400220023058C4FF6EF7635400584CF
:101F7000028C8388048B48F6FF752C404FF6FF4592
:101F80002C400D884FF6FF7606EA05252C434FF6C8
:101F9000DF752A400D8906EA05152A434D8806EAB1
:101FA00005152A43444DA84202D0494DA8421DD1EF
:101FB0004FF67F752A404D894FF6FF7606EA0515E4
:101FC0002A434FF6BF752A408D8806EA05152A4335
:101FD0004FF6FF352B404FF2FF752B408D8906EAF7
:101FE00085052B43CD8906EA85052B438380048331
:101FF000CD880587028470BD70B5002400220023BF
:10200000058C4FF6FF6635400584028C8388848BEF
:102010004FF68F752C404FF6FC752C400D882C43E5
:102020004FF6FF552A400D894FF6FF7606EA052543
:102030002A434D8806EA05252A431F4DA84202D0AF
:10204000234DA8421DD14FF2FF752A404D894FF60E
:10205000FF7606EA05252A434FF6FF352A408D888C
:1020600006EA05252A434EF6FF752B404DF6FF750F
:102070002B408D8906EA05152B43CD8906EA051507
:102080002B4383808483CD888587028470BD70B59F
:10209000002200230024058C4EF6FF76354005848F
:1020A000038C8488828B48F6FF752A404FF6FF45E3
:1020B0002A400D8820E00000002C01400004004070
:1020C00000080040000C00400010004000140040D8
:1020D00000340140004C01400050014000540140D8
:1020E00000180040001C004000200040004001405B
:1020F00000440140004801404FF6FF7606EA0525FE
:102100002A434DF6FF752B400D8906EA05352B4312
:102110004D8806EA05352B43FA4DA84202D0FA4D08
:10212000A84208D14BF6FF752C408D894FF6FF76FB
:1021300006EA85152C4384808283CD88A0F8405020
:10214000038470BD828B4FF2FF331A408283828BEF
:102150004FF6FF7303EA01231A4382837047F0B5F9
:102160000C461546002200210026078C4EF6FF7C07
:1021700007EA0C070784828B018C4FF6FF7707EA8A
:10218000043640F6FF473A404FF6FF7707EA052747
:102190003A434FF6FF7707EA03373A43D94FB8423D
:1021A0000ED0D94FB8420BD0B0F1804F08D0D74FE6
:1021B000B84205D0D64FB84202D0D64FB84206D169
:1021C0004DF6FF77394046F48057394305E047F62E
:1021D000FF57394044F48057394382830184F0BD6E
:1021E000828B4FF6F3731A408283828B0A43828379
:1021F0007047F0B50C461546002200210026078CDA
:102200004FF6FF6C07EA0C070784828B018C4FF6B0
:10221000FF7707EA04264FF60C773A404FF6FF7730
:1022200007EA03172F433A43B64FB8420ED0B64FD2
:10223000B8420BD0B0F1804F08D0B44FB84205D0AF
:10224000B34FB84202D0B34FB84206D14FF6FF5752
:10225000394046F48077394305E04FF2FF57394063
:1022600044F48077394382830184F0BD028B4FF2BE
:10227000FF331A400283028B4FF6FF7303EA0123F8
:102280001A4302837047F0B50C4615460022002120
:102290000026078C4FF6EF7C07EA0C070784028BB9
:1022A000018C4FF6FF7707EA041640F6FF473A40E5
:1022B0004FF6FF7707EA03373A434FF6FF7707EA0F
:1022C00005273A438F4FB8420ED08F4FB8420BD0FC
:1022D000B0F1804F08D08D4FB84205D08C4FB84236
:1022E00002D08C4FB84206D14FF6DF77394046F026
:1022F0001007394305E04FF65F77394044F0100787
:10230000394302830184F0BD028B4FF6F3731A4008
:102310000283028B0A4302837047F0B50C461546D0
:1023200000220021068C4FF6FE773E400684028B89
:10233000018C4FF60C7632407E1C06EA03162E43C3
:102340003243704EB0420ED06F4EB0420BD0B0F15F
:10235000804F08D06D4EB04205D06D4EB04202D0D5
:102360006C4EB04206D14FF6FD76314044F0010686
:10237000314305E04FF6F576314044F00106314334
:1023800002830184F0BD70B505460C465D48854268
:102390000ED05D4885420BD0B5F1804F08D05B4828
:1023A000854205D05A48854202D05A48854200D11C
:1023B00000E000BF208850B92389A28861882846A0
:1023C000FFF7ABFFE1882846FFF79EFF25E0208856
:1023D00004280AD12389A28861882846FFF753FF81
:1023E000E1882846FFF742FF17E0208808280AD135
:1023F0002389A28861882846FFF7FBFEE1882846EA
:10240000FFF7EEFE09E02389A28861882846FFF7DE
:10241000A6FEE1882846FFF795FE70BD2DE9F04144
:1024200005460C4600260127608808B9022600E010
:102430000026A088012801D1022700E0012720887A
:10244000A0B92389A28861882846FFF766FFE18842
:102450002846FFF759FF23893A4631462846FFF7B9
:1024600012FFE1882846FFF701FF13E02389A288C5
:1024700061882846FFF707FFE1882846FFF7F6FE48
:1024800023893A4631462846FFF747FFE188284628
:10249000FFF73AFFBDE8F0810A884B881A438B8822
:1024A0001A43CB881A430B891A434B891A438B89E9
:1024B0001A43A0F8442070474FF6FF718180002135
:1024C0000180C180418001727047002101804180FC
:1024D0008180C180018141818181C181704700215A
:1024E00001804180012181800021C18001817047EC
:1024F0000021018041808180C180018141818181F1
:1025000070470000002C01400034014000040040EE
:1025100000080040000C004021B1028842F0010296
:10252000028004E002884FF6FE731A400280704772
:1025300031B1B0F8442042F40042A0F8442005E054
:10254000B0F84420C2F30E02A0F8442070471AB13C
:1025500083890B43838102E083898B4383817047A6
:102560008182704741EA0203A0F8483070471AB1EF
:1025700083890B43838102E083898B438381704786
:1025800001894FF6F8721140018170470A46002117
:1025900001894FF68F73194011430181704730B59F
:1025A00004460D4629462046FFF7F0FF208940F0FB
:1025B0000700208130BD2DE9F04104460D46164646
:1025C0001F46602D06D13B46012231462046FFF7CB
:1025D0005AFE05E03B46012231462046FFF79DFEAC
:1025E00029462046FFF7D2FF208940F007002081CE
:1025F000BDE8F08130B50C4600210189C9B24FF623
:10260000FF7505EA0325154325432943018130BDA4
:102610002DE9F04105460E461746984600244346EC
:102620003A4631462846FFF7E5FF2C894FF6F87009
:10263000044044F007044FF68F70044044F07004E7
:102640002C81BDE8F081F0B504460D4616461F46C4
:102650003B46324629462046FFF7CCFF208940F40E
:1026600080402081F0BD0185828270470A460021AA
:1026700001884FF68F731940114301807047F0B500
:102680000C4615461E460021002200230189028BBC
:10269000038C4FF6F877394021434FF6FC473A4018
:1026A00040F201173A434FF6DD773B404FF6FF7794
:1026B00007EA06172F433B43018102830384F0BDE1
:1026C0000A460021018B4FF68F7319401143018395
:1026D00070470A460021018B48F6FF7319404FF6F8
:1026E000FF7303EA02231943018370470A4600215E
:1026F000818B4FF68F7319401143818370470A46CF
:102700000021818B48F6FF7319404FF6FF7303EAEF
:10271000022319438183704721B1028842F080026D
:10272000028004E002884FF67F731A4002807047EF
:1027300021B1828842F00402828004E082884FF650
:10274000FB731A408280704721B1828842F00802F0
:10275000828004E082884FF6F7731A4082807047C7
:1027600021B1828842F00102828004E082884FF623
:10277000FE731A40828070470A460021018B4FF693
:10278000F77319401143018370470A460021018BFA
:102790004FF2FF7319404FF6FF7303EA0223194308
:1027A000018370470A460021818B4FF6F773194069
:1027B0001143818370470A460021818B4FF2FF73DA
:1027C00019404FF6FF7303EA0223194381837047D0
:1027D0000A460021018B4FF6FB7319401143018318
:1027E00070470A460021018B4FF6FF3319404FF620
:1027F000FF7303EA02231943018370470A4600214D
:10280000818B4FF6FB7319401143818370470A4651
:102810000021818B4FF6FF3319404FF6FF7303EA17
:1028200002231943818370470A460021018B4FF62A
:102830007F7319401143018370470A460021018BC1
:10284000C1F30E014FF6FF7303EA0223194301831C
:1028500070470A460021818B4FF67F731940114360
:10286000818370470A460021818BC1F30E014FF628
:10287000FF7303EA02231943818370470A4600214C
:10288000018C4FF6FD7319401143018470470A46CD
:102890000021018C4FF6F7731940114301847047F2
:1028A0000A460021018C4FF6DF7319404FF6FF7383
:1028B00003EA02131943018470470A460021018C80
:1028C0004FF67F7319404FF6FF7303EA0213194363
:1028D000018470470A460021018C4FF6FF531940CE
:1028E0004FF6FF7303EA02231943018470470A4637
:1028F0000021018C4FF2FF7319404FF6FF7303EA7A
:1029000002231943018470470A460021018C4DF6C9
:10291000FF7319404FF6FF7303EA02331943018432
:10292000704730B5002301248C40A3B2048C9C4333
:102930000484048C02FA01F5ADB22C43048430BD4A
:1029400030B5002304248C40A3B2048C9C4304843F
:10295000048C02FA01F5ADB22C43048430BD70B58D
:102960000346002000241846183001258D40ACB2E3
:102970001D8CA5431D8409B1082909D100EB610014
:10298000056825F0700505600568154305600EE0D3
:102990000D1FC5F34E052844056825F4E045056084
:1029A00005684FF6FF7606EA02263543056070BDDE
:1029B00021B1028842F00202028004E002884FF650
:1029C000FD731A400280704721B1028842F0040270
:1029D000028004E002884FF6FB731A4002807047C1
:1029E00021B1828842F08002828004E082884FF622
:1029F0007F731A408280704702884FF6F7731A403F
:102A0000028002880A430280704782884FF68F73E3
:102A10001A40828082880A438280704702894FF67A
:102A2000F8731A40028102890A43028170470289C1
:102A30004FF67F731A40028102890A430281704770
:102A40008184704781857047818670470187704710
:102A500081877047A0F84010704702884FF6FF4307
:102A60001A40028002880A43028070470146888E1D
:102A700070470146088F70470146888F70470146AE
:102A8000B1F8400070470146888C70470146088DB8
:102A9000704702460020138A0B400BB1012000E072
:102AA00000207047CA430282704730B502460020BA
:102AB00000230024158A05EA0103958905EA01042B
:102AC00013B10CB1012000E0002030BDCA430282E6
:102AD00070470000002044490860091D0860091D76
:102AE0000860091D086041483F491431086070477B
:102AF00000213D498279002A3AD00A4612680368CB
:102B00009A430B461A600A1D126803689A430B1D0C
:102B10001A60027911440A6803681A430A60324A4B
:102B20000832126803689A432F4B08331A601A1D43
:102B3000126803689A432C4B0C331A604279102AAE
:102B40000ED11A1F126803681A43274B08331A6004
:102B50001A1D126803681A43234B0C331A600DE0E8
:102B60002149427911440A6803681A430A6005E062
:102B7000027911440A6803689A430A607047002189
:102B8000016001710C21417100218171704716496A
:102B9000103109680143144A103211607047014630
:102BA0000020114A143212680A400AB1012000E0E4
:102BB000002070470C49143108607047014600201E
:102BC0000022094B1B6803EA0102074B14331B6800
:102BD0000B4013B10AB1012000E000207047024908
:102BE000143108607047000000040140FFFF0F002F
:102BF0002DE9FE4F804681EA0300C00F0C4600908D
:102C000021F0004123F00045B8EB0200A94105D2B4
:102C10004046214690461C460B46024623F00040A3
:102C2000104347D0270DC7F30A00C3F30A5102909F
:102C3000401A019040286BDAC3F3130040F4801B64
:102C40000098924620B10023D2EB030A63EB0B0BF2
:102C500001985946C0F14002504600F0ACF90646D2
:102C60000D4650465946019A00F0C4F910EB080091
:102C70006141002487EA115284EAE7731A4340D085
:102C8000009A62B3019A012A4FEA075215DC001B31
:102C900061EB02014FF0004202EA0752CDE9004227
:102CA000001C41F5801132462B4600F0FBF903B0C1
:102CB000BDE8F08F40462146F9E7001B61EB0201B9
:102CC000001C41F5801300185B412018A2F5001785
:102CD00047EB030140EAD570B6196D4111E06D086C
:102CE0004FEA360645EAC0754FEA0752001B61EB12
:102CF0000201001C41F5801149084FEA300000191B
:102D0000514132462B4603B0BDE8F04F00F0BBB94D
:102D10000098012240000023D0EB020263EBE07335
:102D2000009821464FEAE074B8EB000061EB040123
:102D3000E9E783F000435BE781F0004158E72DE9C4
:102D4000FE4F81EA030404F0004421F000410094A6
:102D50004FF0000B23F0004350EA01045ED052EA2A
:102D600003045BD0C3F30A54C1F30A552C44A4F204
:102D7000F3340194A0FB0254C1F3130141F4801118
:102D8000C3F3130343F4801301FB024400FB034E1F
:102D9000840A970A44EA815447EA8357A4FB0768E8
:102DA00002958D0A05FB07854FEA932C04FB0C5412
:102DB0002705029D4FEA065847EA1637B5EB080586
:102DC0006EEB070C870E920E47EA811742EA8312D8
:102DD000A7FB0201B6EB0B0164EB00042B0D43EAE9
:102DE0000C335E1844EB1C50DA465146E7FB0201F7
:102DF000C5F313044FEA0B3343EA14534FEA04328A
:102E0000019C43EA0603A4F10C040294009CCDE962
:102E100000B400F047F903B0BDE8F08F0020014690
:102E2000F9E72DE9F04D81EA030404F0004B21F0AD
:102E3000004514464FF0000A23F0004150EA050215
:102E400020D054EA01021DD0C5F30A570246C5F34B
:102E50001303C1F31300C1F30A5640F4801543F481
:102E60008013A7EB0608101BD64608F2FD3873EB5B
:102E7000050002D308F1010801E092185B41B8F1A6
:102E8000000F03DA00200146BDE8F08D00204FF46A
:102E90008011064684460EE0171B73EB050705D329
:102EA000121B63EB050306434CEA010C49084FEA89
:102EB000300092185B4150EA0107EDD152EA03005D
:102EC00012D082EA040083EA0501084305D0101BF2
:102ED000AB4106D20122002306E000224FF000435E
:102EE00002E06FF0010253101AEB06004CEB0851A0
:102EF00010EB0A0041EB0B01BDE8F04D00F0C3B848
:102F000096230022114600F090B820F00040C10D39
:102F1000C0F3160040F400007F2901DA002070475A
:102F2000962903DCC1F19601C84070479639884064
:102F30007047C1F30A5210B5C1F3130140F2FF33D9
:102F400041F480119A4201DA002010BD40F233436F
:102F50009A42A2F2334203DC524200F03BF810BD29
:102F6000904010BD00F0004230F000400AD0C10D8A
:102F700001F56071C0F3160042EA0151C208400732
:102F80001143704700200146704730B50B4601469B
:102F900000202022012409E021FA02F59D4205D3F8
:102FA00003FA02F5491B04FA02F52844151EA2F1A2
:102FB0000102F1DC30BD202A04DB203A00FA02F1E4
:102FC000002070479140C2F1200320FA03F3194317
:102FD00090407047202A04DB203A21FA02F00021B9
:102FE000704721FA02F3D040C2F120029140084319
:102FF00019467047202A06DBCB17203A41FA02F027
:1030000043EAE07306E041FA02F3D040C2F1200245
:1030100091400843194670470029A8BF7047401CDB
:10302000490008BF20F00100704710B4B0FA80FCDE
:1030300000FA0CF050EA010404BF10BC704749B11B
:10304000CCF1200421FA04F411FA0CF118BF01218B
:1030500021430843A3EB0C01CB1D4FEA00614FEA6B
:10306000102042BF002010BC704700EBC35010443A
:103070000029A4BF10BC7047401C490008BF20F0C5
:10308000010010BC704710B5141E73F1000408DA7B
:10309000401C41F1000192185B411A4301D120F01C
:1030A000010010BD2DE9F04D92469B4611B1B1FAD9
:1030B00081F202E0B0FA80F220329046FFF77BFF07
:1030C00004460F4640EA0A0041EA0B0153465A46BD
:1030D000084313D0114653EA010019D0C8F1400249
:1030E0005046FFF777FF05460E4650465946424682
:1030F000FFF761FF084305D0012004E02046394670
:10310000BDE8F08D0020054346EAE0762C433743C6
:103110000A986305E40AA0EB08000022FD0A44EACD
:1031200047540A3002D500200146E9E7010510198D
:103130006941DDE9084500196941BDE8F04DA2E7A4
:10314000064C074D06E0E06840F0010394E80700F4
:1031500098471034AC42F6D3FCF7EEFF683B00080A
:10316000883B000870B58C1810F8015B15F0070358
:1031700001D110F8013B2A1106D110F8012B03E010
:1031800010F8016B01F8016B5B1EF9D12B0705D418
:103190000023521E0DD401F8013BFAE710F8013B61
:1031A000CB1A921C03E013F8015B01F8015B521E7D
:1031B000F9D5A142D8D3002070BD00000FB4054B53
:1031C00010B503A9044A029800F018F810BC5DF885
:1031D00014FB0000330C00080009002002E008C8BE
:1031E000121F08C1002AFAD170477047002001E081
:1031F00001C1121F002AFBD1704700002DE9FF4FCB
:1032000089B09B460446002506E025280BD05A4687
:103210000B999047641C6D1C20780028F5D10DB0E7
:103220002846BDE8F08F0027B8460122474900E054
:10323000074314F8013F203B02FA03F00842F7D19C
:1032400020782E2819D114F8010F47F004072A28F6
:103250000ED06FF02F022078A0F1300109290CD890
:1032600008EB880102EB410100EB0108641CF2E766
:103270000A98641C50F8048B0A9020780028CED05D
:10328000642808D0692806D075281ED05A460B99A4
:1032900090476D1C58E00A994FF00A0901C90A913C
:1032A000002802DA40422D2102E0390504D52B2105
:1032B0008DF82010012103E0F90704D02021F7E761
:1032C0008A4608AE0DE00021FAE70A994FF00A0994
:1032D00001C90A91F7E74946FFF757FE303106F872
:1032E000011D0028F7D1ADEB060000F12009780799
:1032F00001D44FF00108C84502DDA8EB090000E049
:1033000000208046002706E008A85A46C05D0B99B9
:1033100090476D1C7F1C5745F6DB04E030205A4671
:103320000B9990476D1CB8F10001A8F10108F5DC7C
:1033300005E016F8010B5A460B9990476D1CB9F140
:103340000001A9F10109F4DC641C65E7092801000A
:103350000000000000000000002F00000000070037
:10336000070000147F147F1400242A7F2A120062B1
:10337000640813230036495522500000050300005D
:1033800000001C224100000041221C000014083EE5
:1033900008140008083E0808000000A060000008AB
:1033A00008080808000060600000002010080402FF
:1033B000003E5149453E0000427F400000426151BD
:1033C0004946002141454B31001814127F10002757
:1033D00045454539003C4A4949300001710905031A
:1033E00000364949493600064949291E000036364B
:1033F00000000000563600000008142241000014AE
:10340000141414140000412214080002015109068A
:1034100000324959513E007C1211127C007F49490B
:103420004936003E41414122007F4141221C007F3C
:1034300049494941007F09090901003E4149497A4A
:10344000007F0808087F0000417F410000204041C4
:103450003F01007F08142241007F40404040007F30
:10346000020C027F007F0408107F003E4141413E74
:10347000007F09090906003E4151215E007F0919BC
:1034800029460046494949310001017F0101003FB9
:103490004040403F001F2040201F003F4038403F39
:1034A000006314081463000708700807006151499D
:1034B000454300007F41410000552A552A55000030
:1034C00041417F00000402010204004040404040AE
:1034D000000001020400002054545478007F484446
:1034E000443800384444442000384444487F00387D
:1034F0005454541800087E0901020018A4A4A47CA6
:10350000007F080404780000447D4000004080846F
:103510007D00007F102844000000417F4000007CB7
:1035200004180478007C08040478003844444438C3
:1035300000FC242424180018242418FC007C08040F
:10354000040800485454542000043F444020003CE8
:103550004040207C001C2040201C003C4030403C6F
:10356000004428102844001CA0A0A07C00446454FF
:103570004C44141414141414000000000000000043
:103580000000000000000000000000F80000000043
:10359000000000333000000000100C06100C060084
:1035A000000000000000000040C07840C0784000EB
:1035B000043F04043F040400007088FC083000004D
:1035C000001820FF211E0000F008F000E0180000A5
:1035D00000211C031E211E0000F00888700000005E
:1035E0001E2123241927211010160E0000000000B0
:1035F0000000000000000000000000E018040200CD
:10360000000000071820400000020418E00000003D
:103610000040201807000000404080F0804040003B
:103620000202010F01020200000000F00000000091
:103630000101011F01010100000000000000000065
:1036400080B07000000000000000000000000000DA
:103650000001010101010101000000000000000063
:1036600000303000000000000000000080601804FE
:10367000006018060100000000E010080810E000DB
:10368000000F102020100F00001010F800000000A4
:103690000020203F202000000070080808887000EB
:1036A000003028242221300000300888884830006B
:1036B0000018202020110E000000C02010F800008B
:1036C00000070424243F240000F808888808080024
:1036D0000019212020110E0000E010888818000039
:1036E000000F112020110E0000380808C83808000B
:1036F0000000003F0000000000708808088870008B
:10370000001C222121221C0000E010080810E0000B
:103710000000312222110F00000000C0C000000094
:1037200000000030300000000000008000000000B9
:1037300000008060000000000000804020100800B1
:10374000000102040810200040404040404040007A
:103750000404040404040400000810204080000055
:103760000020100804020100007048080808F0005A
:103770000000003036010000C030C828E810E0002A
:103780000718272423140B000000C038E0000000B5
:10379000203C23020227382008F88888887000001F
:1037A000203F202020110E00C030080808083800F3
:1037B000071820202010080008F808080810E0006A
:1037C000203F202020100F0008F88888E80810000B
:1037D000203F20202320180008F88888E8081000DF
:1037E000203F200003000000C03008080838000017
:1037F00007182020221E020008F808000008F80818
:10380000203F210101213F20000808F8080800009E
:103810000020203F2020000000000808F8080800D1
:10382000C08080807F00000008F888C02818080049
:10383000203F20012638200008F808000000000082
:10384000203F20202020300008F8F800F8F8080079
:10385000203F003F003F200008F830C00008F80873
:10386000203F200007183F00E01008080810E00083
:103870000F10202020100F0008F808080808F0009A
:10388000203F210101010000E01008080810E000BD
:103890000F18242438504F0008F888888888700052
:1038A000203F2000030C30200070880808083800F2
:1038B0000038202121221C00180808F808081800E8
:1038C0000000203F2000000008F808000008F80869
:1038D000001F202020201F000878880000C838081A
:1038E000000007380E010000F80800F80008F80092
:1038F000033C0700073C030008186880806818082C
:1039000020302C03032C30200838C800C8380800A9
:103910000000203F2000000010080808C8380800F8
:103920002038262120201800000000FE020202009C
:103930000000007F40404000000C30C0000000004C
:10394000000000010638C00000020202FE00000074
:10395000004040407F00000000000402020204001A
:103960000000000000000000000000000000000057
:10397000808080808080808000020204000000003F
:103980000000000000000000000080808080000037
:103990000019242222223F2008F800808000000025
:1039A000003F112020110E000000008080800000E8
:1039B000000E112020201100000000808088F800F7
:1039C000000E112020103F20000080808080000029
:1039D000001F222222221300008080F0888888188D
:1039E0000020203F20200000000080808080800098
:1039F000006B94949493600008F80080808000002D
:103A0000203F210000203F20008098980000000007
:103A10000020203F20200000000000809898000037
:103A200000C08080807F000008F800008080800057
:103A3000203F24022D302000000808F8000000007C
:103A40000020203F20200000808080808080800037
:103A5000203F20003F20003F8080008080800000C9
:103A6000203F210000203F20000080808080000057
:103A7000001F202020201F00808000808000000088
:103A800080FFA12020110E000000008080808000B7
:103A9000000E112020A0FF808080800080808000A8
:103AA00020203F21200001000000808080808000D5
:103AB0000033242424241900008080E0808000004A
:103AC0000000001F20200000808000000080800097
:103AD000001F202020103F208080800000808080F8
:103AE00000010E3008060100808000800080808088
:103AF0000F300C030C300F000080800080808000AD
:103B00000020312E0E3120008080800000808080D7
:103B100080818E7018060100008080808080800087
:103B20000021302C2221300000000000807C0202A5
:103B300000000000003F404000000000FF000000C7
:103B400000000000FF0000000002027C8000000076
:103B50000040403F00000000000601010202040492
:103B60000000000000000000883B0008000000206A
:103B70002C09000064310008003F00082C090020D7
:103B800004040000EC3100081112081304401A204C
:103B90000222401A040E84A24A04200D01020304EA
:103BA000060708091060028C2BFE92010213FE1812
:103BB0000A04047E01407E42427E021B427E48F19E
:103BC0003940493F091740080B104448507F404096
:103BD0007F50484440212809FC242424FC25262425
:103BE00008799F9108101140308F80844C5525250D
:103BF00025554C8080803F2C0404FC81290301144E
:103C0000000F110F04040F02FE42220E1222528AEC
:103C100082001014202010F0A8A4AAB1A2A4A8F039
:103C2000102020080B11FF8242220A0A12122B4494
:103C30007F11080E11020C80608040300FC8080808
:103C400028181F080E10027E018040201806010669
:103C50001820404100101190523410FF103452804F
:103C6000708F0808F8081008829A566322528E0E48
:103C7000118040330C334001167B80C00A29011BA0
:103C8000C0E001593C190EABC080482CC0E0F001E7
:103C900055F8FCFC046BE0E03D493C5901B93401A6
:103CA0001B2B7CFF011D7F7E3E3F013B1F9F0E496A
:103CB00001320E6A3C0D2BFCF0668DE0F8F8F7211E
:103CC000121F4B78FE0A5AFE08494C590703263F3B
:103CD0001E3C010101BE7CE0F8FC433C1F0F0315B4
:103CE000191E1D070F1F1F9B2966297458091F1FC6
:103CF0000F0F0F070703201B01030A19418AE080F9
:103D000001326C80C0F07B197A1A075AB6C0F0F8FD
:103D1000FC187AE0E10215E079BA1901022BC01B08
:103D2000C0E069795C19E33AFE0D490583FCF89A15
:103D30001C5F01159A3F21032AFF38180D03070F56
:103D40000F0F07070303030101F761190B1C03039E
:103D50000716791239291C1F1F1F2C091A4A2922FC
:103D6000B9360143181280C0E0E0F0F8FCFCFCFE1C
:103D7000FEFE7E7E3F7E7E08000B56FEFCFCF8F0C9
:103D8000F0E0C080801A80752AF0753808FEFFFFC9
:103D9000FF7F7F3FD779D83B0101EC1C3F3F7F1E5F
:103DA000198C1BF8F88B0A3FC08BF9757A0F7519BF
:103DB000193AF8171CFF7F3F181D878381802E2A30
:103DC000C08C3F0307070F1F1F8B4AFF8B0A2AE097
:103DD0008B194639753AFE75295D19756A01EA2114
:103DE0001E6070383C3E17380A1F1FDF8F8F8FCF41
:103DF000EEF7271926599AB1798B298C4CFEFCFCD9
:103E00008B09138C2975AAF875BA077501153B0340
:103E10003F8700081E0F0F0606020202AF010303D0
:103E2000070F0F8B1AF08B894B19A9191F0968010D
:103E3000196E29E3811D989898B8928011A080800E
:103E4000FCFCFC848080A0E0E0F0B898981A800127
:103E500021280BC0C0C0C8181C383830201269BED9
:103E6000200F406060F0F0585CDCFCF47050D8C863
:103E7000700DE0E0606064FCFC6460E0E0E03DF058
:103E8000F0F0B001195D4AB40A1913C1FB616D016C
:103E90001AFF0151200810181E1F0F07014D7F7FC8
:103EA0007F6001280B7870301103070F0E0E04801D
:103EB0001E7F3F1F0D0D1D254F4D7F7F500F6F6FD4
:103EC0006E66667F7F62662F6F7F604019F03A0DE5
:103ED000011925595E80086F6F6F7070301013E400
:103EE000011C20E40404120819DD011A1986890C4A
:103EF0002C0203040400090006070809020406084E
:0400000508000131BD
:00000001FF
